{
  "contractName": "AgreementContract",
  "abi": [
    {
      "inputs": [],
      "stateMutability": "nonpayable",
      "type": "constructor"
    },
    {
      "anonymous": false,
      "inputs": [
        {
          "indexed": true,
          "internalType": "uint256",
          "name": "id",
          "type": "uint256"
        },
        {
          "indexed": false,
          "internalType": "string",
          "name": "details",
          "type": "string"
        },
        {
          "indexed": false,
          "internalType": "string",
          "name": "employeeId",
          "type": "string"
        },
        {
          "indexed": false,
          "internalType": "uint256",
          "name": "start_time",
          "type": "uint256"
        },
        {
          "indexed": false,
          "internalType": "uint256",
          "name": "end_time",
          "type": "uint256"
        },
        {
          "indexed": false,
          "internalType": "uint256",
          "name": "price",
          "type": "uint256"
        }
      ],
      "name": "ContractCreation",
      "type": "event"
    },
    {
      "anonymous": false,
      "inputs": [
        {
          "indexed": true,
          "internalType": "address",
          "name": "previousOwner",
          "type": "address"
        },
        {
          "indexed": true,
          "internalType": "address",
          "name": "newOwner",
          "type": "address"
        }
      ],
      "name": "OwnershipTransferred",
      "type": "event"
    },
    {
      "anonymous": false,
      "inputs": [
        {
          "indexed": true,
          "internalType": "uint256",
          "name": "id",
          "type": "uint256"
        },
        {
          "indexed": true,
          "internalType": "string",
          "name": "name",
          "type": "string"
        },
        {
          "indexed": false,
          "internalType": "string",
          "name": "email",
          "type": "string"
        },
        {
          "indexed": true,
          "internalType": "uint256",
          "name": "phoneNo",
          "type": "uint256"
        },
        {
          "indexed": false,
          "internalType": "enum AgreementContract.Role",
          "name": "role",
          "type": "uint8"
        }
      ],
      "name": "registration",
      "type": "event"
    },
    {
      "inputs": [],
      "name": "AdminCommissionFee",
      "outputs": [
        {
          "internalType": "uint256",
          "name": "",
          "type": "uint256"
        }
      ],
      "stateMutability": "view",
      "type": "function",
      "constant": true
    },
    {
      "inputs": [
        {
          "internalType": "uint256",
          "name": "",
          "type": "uint256"
        }
      ],
      "name": "agreementDetails",
      "outputs": [
        {
          "internalType": "uint256",
          "name": "id",
          "type": "uint256"
        },
        {
          "internalType": "string",
          "name": "contractName",
          "type": "string"
        },
        {
          "internalType": "string",
          "name": "details",
          "type": "string"
        },
        {
          "internalType": "string",
          "name": "privacy",
          "type": "string"
        },
        {
          "internalType": "uint256",
          "name": "start_time",
          "type": "uint256"
        },
        {
          "internalType": "uint256",
          "name": "end_time",
          "type": "uint256"
        },
        {
          "internalType": "uint256",
          "name": "price",
          "type": "uint256"
        },
        {
          "internalType": "string",
          "name": "validatersID",
          "type": "string"
        },
        {
          "internalType": "string",
          "name": "employeeID",
          "type": "string"
        },
        {
          "internalType": "string",
          "name": "employerID",
          "type": "string"
        },
        {
          "internalType": "bool",
          "name": "approved",
          "type": "bool"
        },
        {
          "internalType": "bool",
          "name": "validated",
          "type": "bool"
        },
        {
          "internalType": "bool",
          "name": "delivered",
          "type": "bool"
        }
      ],
      "stateMutability": "view",
      "type": "function",
      "constant": true
    },
    {
      "inputs": [],
      "name": "agrementId",
      "outputs": [
        {
          "internalType": "uint256",
          "name": "",
          "type": "uint256"
        }
      ],
      "stateMutability": "view",
      "type": "function",
      "constant": true
    },
    {
      "inputs": [
        {
          "internalType": "uint256",
          "name": "",
          "type": "uint256"
        },
        {
          "internalType": "uint256",
          "name": "",
          "type": "uint256"
        },
        {
          "internalType": "enum AgreementContract.Role",
          "name": "",
          "type": "uint8"
        }
      ],
      "name": "claimed",
      "outputs": [
        {
          "internalType": "bool",
          "name": "",
          "type": "bool"
        }
      ],
      "stateMutability": "view",
      "type": "function",
      "constant": true
    },
    {
      "inputs": [
        {
          "internalType": "uint256",
          "name": "",
          "type": "uint256"
        }
      ],
      "name": "contractCancelled",
      "outputs": [
        {
          "internalType": "bool",
          "name": "",
          "type": "bool"
        }
      ],
      "stateMutability": "view",
      "type": "function",
      "constant": true
    },
    {
      "inputs": [
        {
          "internalType": "uint256",
          "name": "",
          "type": "uint256"
        }
      ],
      "name": "employeeDetails",
      "outputs": [
        {
          "internalType": "uint256",
          "name": "id",
          "type": "uint256"
        },
        {
          "internalType": "string",
          "name": "name",
          "type": "string"
        },
        {
          "internalType": "string",
          "name": "email",
          "type": "string"
        },
        {
          "internalType": "uint256",
          "name": "phoneNo",
          "type": "uint256"
        },
        {
          "internalType": "uint256",
          "name": "allocationToken",
          "type": "uint256"
        }
      ],
      "stateMutability": "view",
      "type": "function",
      "constant": true
    },
    {
      "inputs": [
        {
          "internalType": "uint256",
          "name": "",
          "type": "uint256"
        }
      ],
      "name": "employerDetails",
      "outputs": [
        {
          "internalType": "uint256",
          "name": "id",
          "type": "uint256"
        },
        {
          "internalType": "string",
          "name": "name",
          "type": "string"
        },
        {
          "internalType": "string",
          "name": "email",
          "type": "string"
        },
        {
          "internalType": "uint256",
          "name": "phoneNo",
          "type": "uint256"
        },
        {
          "internalType": "uint256",
          "name": "allocationToken",
          "type": "uint256"
        }
      ],
      "stateMutability": "view",
      "type": "function",
      "constant": true
    },
    {
      "inputs": [
        {
          "internalType": "uint256",
          "name": "",
          "type": "uint256"
        },
        {
          "internalType": "uint256",
          "name": "",
          "type": "uint256"
        }
      ],
      "name": "escrowAmount",
      "outputs": [
        {
          "internalType": "uint256",
          "name": "",
          "type": "uint256"
        }
      ],
      "stateMutability": "view",
      "type": "function",
      "constant": true
    },
    {
      "inputs": [
        {
          "internalType": "uint256",
          "name": "",
          "type": "uint256"
        },
        {
          "internalType": "uint256",
          "name": "",
          "type": "uint256"
        }
      ],
      "name": "fundTransfered",
      "outputs": [
        {
          "internalType": "bool",
          "name": "",
          "type": "bool"
        }
      ],
      "stateMutability": "view",
      "type": "function",
      "constant": true
    },
    {
      "inputs": [],
      "name": "maxMilestoneFee",
      "outputs": [
        {
          "internalType": "uint256",
          "name": "",
          "type": "uint256"
        }
      ],
      "stateMutability": "view",
      "type": "function",
      "constant": true
    },
    {
      "inputs": [
        {
          "internalType": "uint256",
          "name": "",
          "type": "uint256"
        },
        {
          "internalType": "uint256",
          "name": "",
          "type": "uint256"
        }
      ],
      "name": "milestoneDetails",
      "outputs": [
        {
          "internalType": "uint256",
          "name": "id",
          "type": "uint256"
        },
        {
          "internalType": "string",
          "name": "taskName",
          "type": "string"
        },
        {
          "internalType": "uint256",
          "name": "Mile_Price",
          "type": "uint256"
        },
        {
          "internalType": "string",
          "name": "Priority",
          "type": "string"
        },
        {
          "internalType": "uint256",
          "name": "due_Date",
          "type": "uint256"
        },
        {
          "internalType": "uint256",
          "name": "submission_time",
          "type": "uint256"
        },
        {
          "internalType": "bool",
          "name": "delivered",
          "type": "bool"
        },
        {
          "internalType": "bool",
          "name": "validated",
          "type": "bool"
        },
        {
          "internalType": "bool",
          "name": "Approve",
          "type": "bool"
        }
      ],
      "stateMutability": "view",
      "type": "function",
      "constant": true
    },
    {
      "inputs": [],
      "name": "milestonefee",
      "outputs": [
        {
          "internalType": "uint256",
          "name": "",
          "type": "uint256"
        }
      ],
      "stateMutability": "view",
      "type": "function",
      "constant": true
    },
    {
      "inputs": [],
      "name": "owner",
      "outputs": [
        {
          "internalType": "address",
          "name": "",
          "type": "address"
        }
      ],
      "stateMutability": "view",
      "type": "function",
      "constant": true
    },
    {
      "inputs": [
        {
          "internalType": "uint256",
          "name": "",
          "type": "uint256"
        },
        {
          "internalType": "uint256",
          "name": "",
          "type": "uint256"
        }
      ],
      "name": "scrowAmountDeposited",
      "outputs": [
        {
          "internalType": "bool",
          "name": "",
          "type": "bool"
        }
      ],
      "stateMutability": "view",
      "type": "function",
      "constant": true
    },
    {
      "inputs": [
        {
          "internalType": "address",
          "name": "newOwner",
          "type": "address"
        }
      ],
      "name": "transferOwnership",
      "outputs": [],
      "stateMutability": "nonpayable",
      "type": "function"
    },
    {
      "inputs": [
        {
          "internalType": "uint256",
          "name": "",
          "type": "uint256"
        }
      ],
      "name": "validatorDetails",
      "outputs": [
        {
          "internalType": "uint256",
          "name": "id",
          "type": "uint256"
        },
        {
          "internalType": "string",
          "name": "name",
          "type": "string"
        },
        {
          "internalType": "string",
          "name": "email",
          "type": "string"
        },
        {
          "internalType": "uint256",
          "name": "phoneNo",
          "type": "uint256"
        },
        {
          "internalType": "uint256",
          "name": "allocationToken",
          "type": "uint256"
        }
      ],
      "stateMutability": "view",
      "type": "function",
      "constant": true
    },
    {
      "inputs": [],
      "name": "getLatestPrice",
      "outputs": [
        {
          "internalType": "uint256",
          "name": "",
          "type": "uint256"
        }
      ],
      "stateMutability": "view",
      "type": "function",
      "constant": true
    },
    {
      "inputs": [
        {
          "internalType": "uint256",
          "name": "id",
          "type": "uint256"
        },
        {
          "internalType": "string",
          "name": "name",
          "type": "string"
        },
        {
          "internalType": "string",
          "name": "email",
          "type": "string"
        },
        {
          "internalType": "uint256",
          "name": "phoneNo",
          "type": "uint256"
        },
        {
          "internalType": "enum AgreementContract.Role",
          "name": "role",
          "type": "uint8"
        }
      ],
      "name": "Registration",
      "outputs": [],
      "stateMutability": "nonpayable",
      "type": "function"
    },
    {
      "inputs": [
        {
          "components": [
            {
              "internalType": "uint256",
              "name": "id",
              "type": "uint256"
            },
            {
              "internalType": "string",
              "name": "contractName",
              "type": "string"
            },
            {
              "internalType": "string",
              "name": "details",
              "type": "string"
            },
            {
              "internalType": "string",
              "name": "privacy",
              "type": "string"
            },
            {
              "internalType": "uint256",
              "name": "start_time",
              "type": "uint256"
            },
            {
              "internalType": "uint256",
              "name": "end_time",
              "type": "uint256"
            },
            {
              "internalType": "uint256",
              "name": "price",
              "type": "uint256"
            },
            {
              "internalType": "string",
              "name": "validatersID",
              "type": "string"
            },
            {
              "internalType": "string",
              "name": "employeeID",
              "type": "string"
            },
            {
              "internalType": "string",
              "name": "employerID",
              "type": "string"
            },
            {
              "internalType": "uint256[]",
              "name": "milstones",
              "type": "uint256[]"
            },
            {
              "internalType": "bool",
              "name": "approved",
              "type": "bool"
            },
            {
              "internalType": "bool",
              "name": "validated",
              "type": "bool"
            },
            {
              "internalType": "bool",
              "name": "delivered",
              "type": "bool"
            }
          ],
          "internalType": "struct AgreementContract.Agreement",
          "name": "_agrement",
          "type": "tuple"
        },
        {
          "internalType": "uint256[]",
          "name": "Mile_Price",
          "type": "uint256[]"
        },
        {
          "internalType": "string[]",
          "name": "_taskName",
          "type": "string[]"
        },
        {
          "internalType": "string[]",
          "name": "priority",
          "type": "string[]"
        },
        {
          "internalType": "uint256[]",
          "name": "due_date",
          "type": "uint256[]"
        }
      ],
      "name": "CreateContract",
      "outputs": [],
      "stateMutability": "nonpayable",
      "type": "function"
    },
    {
      "inputs": [
        {
          "internalType": "uint256",
          "name": "agreementID",
          "type": "uint256"
        },
        {
          "internalType": "string",
          "name": "_employerID",
          "type": "string"
        }
      ],
      "name": "shareOption",
      "outputs": [],
      "stateMutability": "nonpayable",
      "type": "function"
    },
    {
      "inputs": [
        {
          "internalType": "uint256",
          "name": "_agreementID",
          "type": "uint256"
        },
        {
          "internalType": "string",
          "name": "_employerID",
          "type": "string"
        },
        {
          "internalType": "bool",
          "name": "status",
          "type": "bool"
        }
      ],
      "name": "Approve",
      "outputs": [],
      "stateMutability": "nonpayable",
      "type": "function"
    },
    {
      "inputs": [
        {
          "internalType": "uint256",
          "name": "_agreementID",
          "type": "uint256"
        },
        {
          "internalType": "uint256",
          "name": "_milesID",
          "type": "uint256"
        }
      ],
      "name": "depositFunds",
      "outputs": [],
      "stateMutability": "payable",
      "type": "function",
      "payable": true
    },
    {
      "inputs": [
        {
          "internalType": "uint256",
          "name": "_agreementID",
          "type": "uint256"
        },
        {
          "internalType": "uint256",
          "name": "_milesID",
          "type": "uint256"
        },
        {
          "internalType": "string",
          "name": "_employeeID",
          "type": "string"
        },
        {
          "internalType": "uint256",
          "name": "_submissionTime",
          "type": "uint256"
        }
      ],
      "name": "deliverMilestone",
      "outputs": [],
      "stateMutability": "nonpayable",
      "type": "function"
    },
    {
      "inputs": [
        {
          "internalType": "uint256",
          "name": "_agreementID",
          "type": "uint256"
        },
        {
          "internalType": "string",
          "name": "_employerID",
          "type": "string"
        },
        {
          "internalType": "uint256",
          "name": "_milesID",
          "type": "uint256"
        },
        {
          "internalType": "bool",
          "name": "status",
          "type": "bool"
        },
        {
          "internalType": "address",
          "name": "receiver",
          "type": "address"
        }
      ],
      "name": "approveMilestone",
      "outputs": [],
      "stateMutability": "nonpayable",
      "type": "function"
    },
    {
      "inputs": [
        {
          "internalType": "uint256",
          "name": "agreementID",
          "type": "uint256"
        },
        {
          "internalType": "uint256",
          "name": "_mileID",
          "type": "uint256"
        }
      ],
      "name": "getMilestoneETHAmount",
      "outputs": [
        {
          "internalType": "uint256",
          "name": "",
          "type": "uint256"
        }
      ],
      "stateMutability": "view",
      "type": "function",
      "constant": true
    },
    {
      "inputs": [
        {
          "internalType": "uint256",
          "name": "amount",
          "type": "uint256"
        }
      ],
      "name": "convertUSDtoETH",
      "outputs": [
        {
          "internalType": "uint256",
          "name": "",
          "type": "uint256"
        }
      ],
      "stateMutability": "view",
      "type": "function",
      "constant": true
    },
    {
      "inputs": [
        {
          "internalType": "uint256",
          "name": "agreementID",
          "type": "uint256"
        },
        {
          "internalType": "uint256",
          "name": "milestoneID",
          "type": "uint256"
        }
      ],
      "name": "ValidateMilestone",
      "outputs": [],
      "stateMutability": "nonpayable",
      "type": "function"
    },
    {
      "inputs": [
        {
          "internalType": "uint256",
          "name": "agreementID",
          "type": "uint256"
        },
        {
          "internalType": "string",
          "name": "employerId",
          "type": "string"
        }
      ],
      "name": "endOfContract",
      "outputs": [],
      "stateMutability": "nonpayable",
      "type": "function"
    },
    {
      "inputs": [
        {
          "internalType": "uint256",
          "name": "agreementID",
          "type": "uint256"
        }
      ],
      "name": "cancelcontract",
      "outputs": [],
      "stateMutability": "nonpayable",
      "type": "function"
    },
    {
      "inputs": [
        {
          "internalType": "uint256",
          "name": "agreementID",
          "type": "uint256"
        },
        {
          "internalType": "uint256",
          "name": "milesid",
          "type": "uint256"
        },
        {
          "internalType": "enum AgreementContract.Role",
          "name": "role",
          "type": "uint8"
        }
      ],
      "name": "raiseDispute",
      "outputs": [],
      "stateMutability": "nonpayable",
      "type": "function"
    },
    {
      "inputs": [
        {
          "internalType": "uint256",
          "name": "agreementID",
          "type": "uint256"
        },
        {
          "internalType": "uint256",
          "name": "milesID",
          "type": "uint256"
        },
        {
          "internalType": "uint256",
          "name": "amount",
          "type": "uint256"
        },
        {
          "internalType": "address",
          "name": "receiver",
          "type": "address"
        }
      ],
      "name": "disputeResolve",
      "outputs": [],
      "stateMutability": "nonpayable",
      "type": "function"
    },
    {
      "inputs": [
        {
          "internalType": "uint256",
          "name": "fee",
          "type": "uint256"
        }
      ],
      "name": "setMilestoneFee",
      "outputs": [],
      "stateMutability": "nonpayable",
      "type": "function"
    },
    {
      "inputs": [
        {
          "internalType": "address",
          "name": "_priceFeed",
          "type": "address"
        }
      ],
      "name": "updatePriceFeed",
      "outputs": [],
      "stateMutability": "nonpayable",
      "type": "function"
    },
    {
      "inputs": [],
      "name": "withdraw",
      "outputs": [],
      "stateMutability": "nonpayable",
      "type": "function"
    }
  ],
  "bytecode": "0x60806040526101f46002556103e8600355606460045534801561002157600080fd5b50600080546001600160a01b031990811633179091556001805490911673143db3ceefbdfe5631add3e50f7614b6ba708ba7179055613374806100656000396000f3fe6080604052600436106101f85760003560e01c806373fdf0041161010d5780638e15f473116100a0578063c2d46c7b1161006f578063c2d46c7b14610619578063ddc1aa6c14610639578063e08f62a314610659578063f2fde38b14610694578063f344930d146106b457600080fd5b80638e15f473146105a457806395877f78146105b95780639e8a2b18146105d9578063bae2a54b146105f957600080fd5b806388b9ae8c116100dc57806388b9ae8c146104fe5780638a8a8fad1461051e5780638c1bbae4146105565780638da5cb5b1461056c57600080fd5b806373fdf0041461046d5780637d17b0bf1461048d5780637d6031f1146104ad57806381222cd2146104e857600080fd5b80633b20455a116101905780635d5567391161015f5780635d556739146103a457806361638ed5146103d9578063650d300f146103ec5780636d6979451461040c578063711f35ca1461044d57600080fd5b80633b20455a146103235780633ccfd60b146103395780634c553faa1461034e5780634db95bcd1461036457600080fd5b80630ddca895116101cc5780630ddca89514610292578063113d5d49146102b25780632c71f29a146102d25780632da741c61461030357600080fd5b8062321d40146101fd5780630331a4d814610230578063038182c0146102525780630400ec4114610272575b600080fd5b34801561020957600080fd5b5061021d6102183660046126af565b6106ed565b6040519081526020015b60405180910390f35b34801561023c57600080fd5b5061025061024b3660046128a3565b61071a565b005b34801561025e57600080fd5b5061025061026d366004612990565b610a65565b34801561027e57600080fd5b5061025061028d3660046129cf565b610c67565b34801561029e57600080fd5b506102506102ad366004612a35565b610e12565b3480156102be57600080fd5b5061021d6102cd366004612abc565b611067565b3480156102de57600080fd5b506102f26102ed3660046126af565b6110ae565b604051610227959493929190612b2e565b34801561030f57600080fd5b506102f261031e3660046126af565b6111ed565b34801561032f57600080fd5b5061021d60035481565b34801561034557600080fd5b5061025061120f565b34801561035a57600080fd5b5061021d60055481565b34801561037057600080fd5b5061039461037f3660046126af565b600d6020526000908152604090205460ff1681565b6040519015158152602001610227565b3480156103b057600080fd5b506103c46103bf366004612abc565b611276565b60405161022799989796959493929190612b6e565b6102506103e7366004612abc565b6113e3565b3480156103f857600080fd5b506102f26104073660046126af565b611601565b34801561041857600080fd5b50610394610427366004612bd4565b600e60209081526000938452604080852082529284528284209052825290205460ff1681565b34801561045957600080fd5b50610250610468366004612c09565b611623565b34801561047957600080fd5b506102506104883660046126af565b611645565b34801561049957600080fd5b506102506104a8366004612bd4565b6116d2565b3480156104b957600080fd5b506103946104c8366004612abc565b600c60209081526000928352604080842090915290825290205460ff1681565b3480156104f457600080fd5b5061021d60025481565b34801561050a57600080fd5b506102506105193660046126af565b6119e4565b34801561052a57600080fd5b5061021d610539366004612abc565b600660209081526000928352604080842090915290825290205481565b34801561056257600080fd5b5061021d60045481565b34801561057857600080fd5b5060005461058c906001600160a01b031681565b6040516001600160a01b039091168152602001610227565b3480156105b057600080fd5b5061021d611a29565b3480156105c557600080fd5b506102506105d4366004612c4f565b611abf565b3480156105e557600080fd5b506102506105f4366004612c7a565b611b0b565b34801561060557600080fd5b50610250610614366004612cdf565b611ef0565b34801561062557600080fd5b50610250610634366004612abc565b611fee565b34801561064557600080fd5b50610250610654366004612c09565b61212a565b34801561066557600080fd5b50610394610674366004612abc565b600f60209081526000928352604080842090915290825290205460ff1681565b3480156106a057600080fd5b506102506106af366004612c4f565b6121f6565b3480156106c057600080fd5b506106d46106cf3660046126af565b61228e565b6040516102279d9c9b9a99989796959493929190612d2c565b6000806107136106fb611a29565b61070d85670de0b6b3a7640000612627565b9061265f565b9392505050565b6004546000818152600b60209081526040822092835590919061073f90880188612df1565b600183019161074f919083612eb8565b5061075d6060880188612df1565b600383019161076d919083612eb8565b5061077b6040880188612df1565b600283019161078b919083612eb8565b5061079a610100880188612df1565b60088301916107aa919083612eb8565b506080870135600482015560a0870135600582015560c0870135600682015560005b865181101561096b57600480546000908152600b60209081526040808320600a018054600181018255908452828420018590559254825260078152828220848352905220819055865187908290811061082757610827612f77565b60209081029190910181015160045460009081526007835260408082208583529093529190912060020155855186908290811061086657610866612f77565b6020908102919091018101516004546000908152600783526040808220858352909352919091206001019061089b9082612f8d565b508481815181106108ae576108ae612f77565b602090810291909101810151600454600090815260078352604080822085835290935291909120600301906108e39082612f8d565b508381815181106108f6576108f6612f77565b602002602001015160076000600454815260200190815260200160002060008381526020019081526020016000206004018190555061095787828151811061094057610940612f77565b60200260200101518461267490919063ffffffff16565b92508061096381613062565b9150506107cc565b508660c001358211156109dc5760405162461bcd60e51b815260206004820152602e60248201527f6d696c6573746f6e652070726963652069732067726561746572207468616e2060448201526d636f6e747261637420707269636560901b60648201526084015b60405180910390fd5b6004547e355779a9ff333997393f52850649f4f772334a0db6964f0ecc0c6d3904ae5e610a0c60408a018a612df1565b610a1a6101008c018c612df1565b8c608001358d60a001358e60c00135604051610a3c97969594939291906130a4565b60405180910390a2600160046000828254610a5791906130eb565b909155505050505050505050565b6000546001600160a01b03163314610a8f5760405162461bcd60e51b81526004016109d3906130fe565b47821115610ad55760405162461bcd60e51b8152602060048201526013602482015272125b9cdd59999a58da595b9d08185b5bdd5b9d606a1b60448201526064016109d3565b60005b6000858152600b60205260409020600a0154811015610c60576000858152600b60205260409020600a01805482908110610b1457610b14612f77565b90600052602060002001548403610c4e576000610b44610b32611a29565b61070d86670de0b6b3a7640000612627565b90506000610b6361271061070d6002548561262790919063ffffffff16565b600080546040519293506001600160a01b03169183156108fc0291849190818181858888f19350505050158015610b9e573d6000803e3d6000fd5b506001600160a01b0384166108fc610bb68484612693565b6040518115909202916000818181858888f19350505050158015610bde573d6000803e3d6000fd5b50600554610bec9082612674565b6005556000878152600660209081526040808320898452909152902054610c139086612693565b60008881526006602090815260408083208a8452825280832093909355898252600c8152828220898352905220805460ff1916600117905550505b80610c5881613062565b915050610ad8565b5050505050565b8180519060200120600b6000868152602001908152602001600020600801604051610c929190613133565b604051809103902014610cd75760405162461bcd60e51b815260206004820152600d60248201526c4f6e6c7920456d706c6f79656560981b60448201526064016109d3565b6000848152600d602052604090205460ff161515600103610d0a5760405162461bcd60e51b81526004016109d3906131a9565b600084815260076020908152604080832086845290915290206006015462010000900460ff161515600103610d815760405162461bcd60e51b815260206004820152601a60248201527f4d696c6573746f6e6520616c726561647920616363657074656400000000000060448201526064016109d3565b60005b6000858152600b60205260409020600a0154811015610c60576000858152600b60205260409020600a01805482908110610dc057610dc0612f77565b90600052602060002001548403610e00576000858152600760209081526040808320878452909152902060068101805460ff191660011790556005018290555b80610e0a81613062565b915050610d84565b6000546001600160a01b03163314610e3c5760405162461bcd60e51b81526004016109d3906130fe565b6000858152600860205260409020548514801590610e6857506000858152600960205260409020548514155b8015610e8257506000858152600a60205260409020548514155b610edf5760405162461bcd60e51b815260206004820152602860248201527f7468697320696420697320616c726561647920657869737420696e207061727460448201526769636970616e747360c01b60648201526084016109d3565b6000816002811115610ef357610ef36131d6565b03610f8657600085815260096020526040902085815560018101610f178682612f8d565b5060028101610f268582612f8d565b50600381018390556040518390610f3e9087906131ec565b6040518091039020877f16c7b411ca5eeca5c4c2689e250f66485d959b573a6de5eaf41996b346409d818786604051610f78929190613208565b60405180910390a450610c60565b6001816002811115610f9a57610f9a6131d6565b03610fbe57600085815260086020526040902085815560018101610f178682612f8d565b6002816002811115610fd257610fd26131d6565b03610c60576000858152600a6020526040902085815560018101610ff68682612f8d565b50600281016110058582612f8d565b5060038101839055604051839061101d9087906131ec565b6040518091039020877f16c7b411ca5eeca5c4c2689e250f66485d959b573a6de5eaf41996b346409d818786604051611057929190613208565b60405180910390a4505050505050565b60008281526007602090815260408083208484529091528120816110a361108c611a29565b600284015461070d90670de0b6b3a7640000612627565b925050505b92915050565b600a60205260009081526040902080546001820180549192916110d090612e3e565b80601f01602080910402602001604051908101604052809291908181526020018280546110fc90612e3e565b80156111495780601f1061111e57610100808354040283529160200191611149565b820191906000526020600020905b81548152906001019060200180831161112c57829003601f168201915b50505050509080600201805461115e90612e3e565b80601f016020809104026020016040519081016040528092919081815260200182805461118a90612e3e565b80156111d75780601f106111ac576101008083540402835291602001916111d7565b820191906000526020600020905b8154815290600101906020018083116111ba57829003601f168201915b5050505050908060030154908060040154905085565b600860205260009081526040902080546001820180549192916110d090612e3e565b6000546001600160a01b031633146112395760405162461bcd60e51b81526004016109d3906130fe565b600080546040516001600160a01b03909116914780156108fc02929091818181858888f19350505050158015611273573d6000803e3d6000fd5b50565b6007602090815260009283526040808420909152908252902080546001820180549192916112a390612e3e565b80601f01602080910402602001604051908101604052809291908181526020018280546112cf90612e3e565b801561131c5780601f106112f15761010080835404028352916020019161131c565b820191906000526020600020905b8154815290600101906020018083116112ff57829003601f168201915b50505050509080600201549080600301805461133790612e3e565b80601f016020809104026020016040519081016040528092919081815260200182805461136390612e3e565b80156113b05780601f10611385576101008083540402835291602001916113b0565b820191906000526020600020905b81548152906001019060200180831161139357829003601f168201915b505050600484015460058501546006909501549394909390925060ff808216925061010082048116916201000090041689565b6000828152600d602052604090205460ff1615156001036114165760405162461bcd60e51b81526004016109d3906131a9565b6000828152600b60208190526040909120015460ff166114715760405162461bcd60e51b81526020600482015260166024820152751059dc99595b595b9d081b9bdd08185c1c1c9bdd995960521b60448201526064016109d3565b6000828152600f6020908152604080832084845290915290205460ff1615156001036114df5760405162461bcd60e51b815260206004820152601d60248201527f5363726f77416d6f756e7420616c7265616479206465706f736974656400000060448201526064016109d3565b600082815260076020908152604080832084845290915290206006015462010000900460ff1615156001036115565760405162461bcd60e51b815260206004820152601b60248201527f4d696c6573746f6e6520616c72656164792064656c697665726564000000000060448201526064016109d3565b6115608282611067565b34146115a15760405162461bcd60e51b815260206004820152601060248201526f125b98dbdc9c9958dd08185b5bdd5b9d60821b60448201526064016109d3565b60008281526006602090815260408083208484529091529020546115c59034612674565b6000838152600660209081526040808320858452825280832093909355938152600f84528181209281529190925220805460ff19166001179055565b600960205260009081526040902080546001820180549192916110d090612e3e565b6000828152600b602052604090206009810161163f8382612f8d565b50505050565b6000546001600160a01b0316331461166f5760405162461bcd60e51b81526004016109d3906130fe565b6003548111156116cd5760405162461bcd60e51b8152602060048201526024808201527f4665652069732067726561746572207468616e204d61786d696c6573746f6e656044820152632046656560e01b60648201526084016109d3565b600255565b6000838152600c6020908152604080832085845290915290205460ff1615156001036117405760405162461bcd60e51b815260206004820152601760248201527f46756e6420616c7265616479207472616e73666572656400000000000000000060448201526064016109d3565b6000816002811115611754576117546131d6565b036118a457600083815260076020908152604080832085845290915290206006015460ff1615156001146117ca5760405162461bcd60e51b815260206004820152601a60248201527f4d696c6573746f6e65206973206e6f742064656c69766572656400000000000060448201526064016109d3565b600083815260076020908152604080832085845290915290206006015462010000900460ff1615156001036118415760405162461bcd60e51b815260206004820152601a60248201527f436865636b20796f757220417070726f76616c2073746174757300000000000060448201526064016109d3565b6000838152600e60209081526040808320858452909152812060019183600281111561186f5761186f6131d6565b6002811115611880576118806131d6565b81526020810191909152604001600020805460ff1916911515919091179055505050565b60018160028111156118b8576118b86131d6565b036119a857600083815260076020908152604080832085845290915290206006015462010000900460ff1615156001036119345760405162461bcd60e51b815260206004820152601a60248201527f436865636b20796f757220417070726f76616c2073746174757300000000000060448201526064016109d3565b6000838152600760209081526040808320858452825280832060020154868452600683528184208685529092529091205410156118415760405162461bcd60e51b8152602060048201526012602482015271119d5b991cc81b9bdd08195cd8dc9bddd95960721b60448201526064016109d3565b60405162461bcd60e51b815260206004820152600c60248201526b496e76616c696420526f6c6560a01b60448201526064016109d3565b505050565b6000546001600160a01b03163314611a0e5760405162461bcd60e51b81526004016109d3906130fe565b6000908152600d60205260409020805460ff19166001179055565b600080600160009054906101000a90046001600160a01b03166001600160a01b031663feaf968c6040518163ffffffff1660e01b815260040160a060405180830381865afa158015611a7f573d6000803e3d6000fd5b505050506040513d601f19601f82011682018060405250810190611aa39190613262565b5050509150506305f5e10081611ab991906132bc565b91505090565b6000546001600160a01b03163314611ae95760405162461bcd60e51b81526004016109d3906130fe565b600180546001600160a01b0319166001600160a01b0392909216919091179055565b8380519060200120600b6000878152602001908152602001600020600901604051611b369190613133565b604051809103902014611b7b5760405162461bcd60e51b815260206004820152600d60248201526c27b7363c9022b6b83637bcb2b960991b60448201526064016109d3565b6000858152600d602052604090205460ff161515600103611bae5760405162461bcd60e51b81526004016109d3906131a9565b600085815260076020908152604080832086845290915290206006015462010000900460ff161515600103611c255760405162461bcd60e51b815260206004820152601a60248201527f4d696c6573746f6e6520616c726561647920617070726f76656400000000000060448201526064016109d3565b600085815260076020908152604080832086845290915290206006015460ff161515600114611c965760405162461bcd60e51b815260206004820152601760248201527f4d696c6573746f6e65206e6f742064656c69766572656400000000000000000060448201526064016109d3565b6000858152600c6020908152604080832086845290915290205460ff161515600103611d045760405162461bcd60e51b815260206004820152601a60248201527f4d696c6573746f6e6520616c72656164792072656c656173656400000000000060448201526064016109d3565b60005b6000868152600b60205260409020600a0154811015611ee8576000868152600b60205260409020600a01805482908110611d4357611d43612f77565b90600052602060002001548403611ed65760008681526007602090815260408083208784529091529020600601805462ff000019166201000085151590810291909117909155600103611ed6576000611dcc611d9d611a29565b600089815260076020908152604080832087845290915290206002015461070d90670de0b6b3a7640000612627565b90506000611deb61271061070d6002548561262790919063ffffffff16565b600080546040519293506001600160a01b03169183156108fc0291849190818181858888f19350505050158015611e26573d6000803e3d6000fd5b506001600160a01b0384166108fc611e3e8484612693565b6040518115909202916000818181858888f19350505050158015611e66573d6000803e3d6000fd5b50600554611e749082612674565b6005556000888152600660209081526040808320898452909152902054611e9b9083612693565b60008981526006602090815260408083208a84528252808320939093558a8252600c8152828220898352905220805460ff1916600117905550505b80611ee081613062565b915050611d07565b505050505050565b8180519060200120600b6000858152602001908152602001600020600901604051611f1b9190613133565b604051809103902014611f605760405162461bcd60e51b815260206004820152600d60248201526c27b7363c9022b6b83637bcb2b960991b60448201526064016109d3565b6000838152600b60208190526040909120015460ff161515600103611fc75760405162461bcd60e51b815260206004820152601a60248201527f41677265656d656e7420616c726561647920617070726f76656400000000000060448201526064016109d3565b6000928352600b60208190526040909320909201805460ff19169215159290921790915550565b60008281526007602090815260408083208484528252808320858452600d9092529091205460ff1615156001036120375760405162461bcd60e51b81526004016109d3906131a9565b600083815260076020908152604080832085845290915290206006015460ff16151560011461209f5760405162461bcd60e51b81526020600482015260146024820152731a5d081b5d5cdd0818994819195b1a5d995c995960621b60448201526064016109d3565b600083815260076020908152604080832085845290915290206006015462010000900460ff1615156001036121165760405162461bcd60e51b815260206004820152601a60248201527f4d696c6573746f6e6520616c726561647920616363657074656400000000000060448201526064016109d3565b600601805461ff0019166101001790555050565b6000600b6000848152602001908152602001600020905081805190602001208160090160405161215a9190613133565b6040518091039020146121c85760405162461bcd60e51b815260206004820152603060248201527f4f6e6c7920656d706c6f796572206861766520617574686f7269747920746f2060448201526f195b99081d1a194818dbdb9d1c9858dd60821b60648201526084016109d3565b50506000908152600b60208190526040909120908101805462ff000019166201000017905542600590910155565b6000546001600160a01b031633146122205760405162461bcd60e51b81526004016109d3906130fe565b6001600160a01b03811661223357600080fd5b600080546040516001600160a01b03808516939216917f8be0079c531659141344cd1fd0a4f28419497f9722a3daafe3b4186f6b6457e091a3600080546001600160a01b0319166001600160a01b0392909216919091179055565b600b60205260009081526040902080546001820180549192916122b090612e3e565b80601f01602080910402602001604051908101604052809291908181526020018280546122dc90612e3e565b80156123295780601f106122fe57610100808354040283529160200191612329565b820191906000526020600020905b81548152906001019060200180831161230c57829003601f168201915b50505050509080600201805461233e90612e3e565b80601f016020809104026020016040519081016040528092919081815260200182805461236a90612e3e565b80156123b75780601f1061238c576101008083540402835291602001916123b7565b820191906000526020600020905b81548152906001019060200180831161239a57829003601f168201915b5050505050908060030180546123cc90612e3e565b80601f01602080910402602001604051908101604052809291908181526020018280546123f890612e3e565b80156124455780601f1061241a57610100808354040283529160200191612445565b820191906000526020600020905b81548152906001019060200180831161242857829003601f168201915b50505050509080600401549080600501549080600601549080600701805461246c90612e3e565b80601f016020809104026020016040519081016040528092919081815260200182805461249890612e3e565b80156124e55780601f106124ba576101008083540402835291602001916124e5565b820191906000526020600020905b8154815290600101906020018083116124c857829003601f168201915b5050505050908060080180546124fa90612e3e565b80601f016020809104026020016040519081016040528092919081815260200182805461252690612e3e565b80156125735780601f1061254857610100808354040283529160200191612573565b820191906000526020600020905b81548152906001019060200180831161255657829003601f168201915b50505050509080600901805461258890612e3e565b80601f01602080910402602001604051908101604052809291908181526020018280546125b490612e3e565b80156126015780601f106125d657610100808354040283529160200191612601565b820191906000526020600020905b8154815290600101906020018083116125e457829003601f168201915b505050600b909301549192505060ff80821691610100810482169162010000909104168d565b600082600003612639575060006110a8565b600061264583856132ea565b9050826126528583613301565b1461071357610713613315565b60008061266c8385613301565b949350505050565b60008061268183856130eb565b90508381101561071357610713613315565b6000828211156126a5576126a5613315565b610713828461332b565b6000602082840312156126c157600080fd5b5035919050565b60006101c082840312156126db57600080fd5b50919050565b634e487b7160e01b600052604160045260246000fd5b604051601f8201601f191681016001600160401b038111828210171561271f5761271f6126e1565b604052919050565b60006001600160401b03821115612740576127406126e1565b5060051b60200190565b600082601f83011261275b57600080fd5b8135602061277061276b83612727565b6126f7565b82815260059290921b8401810191818101908684111561278f57600080fd5b8286015b848110156127aa5780358352918301918301612793565b509695505050505050565b600082601f8301126127c657600080fd5b81356001600160401b038111156127df576127df6126e1565b6127f2601f8201601f19166020016126f7565b81815284602083860101111561280757600080fd5b816020850160208301376000918101602001919091529392505050565b600082601f83011261283557600080fd5b8135602061284561276b83612727565b82815260059290921b8401810191818101908684111561286457600080fd5b8286015b848110156127aa5780356001600160401b038111156128875760008081fd5b6128958986838b01016127b5565b845250918301918301612868565b600080600080600060a086880312156128bb57600080fd5b85356001600160401b03808211156128d257600080fd5b6128de89838a016126c8565b965060208801359150808211156128f457600080fd5b61290089838a0161274a565b9550604088013591508082111561291657600080fd5b61292289838a01612824565b9450606088013591508082111561293857600080fd5b61294489838a01612824565b9350608088013591508082111561295a57600080fd5b506129678882890161274a565b9150509295509295909350565b80356001600160a01b038116811461298b57600080fd5b919050565b600080600080608085870312156129a657600080fd5b8435935060208501359250604085013591506129c460608601612974565b905092959194509250565b600080600080608085870312156129e557600080fd5b843593506020850135925060408501356001600160401b03811115612a0957600080fd5b612a15878288016127b5565b949793965093946060013593505050565b80356003811061298b57600080fd5b600080600080600060a08688031215612a4d57600080fd5b8535945060208601356001600160401b0380821115612a6b57600080fd5b612a7789838a016127b5565b95506040880135915080821115612a8d57600080fd5b50612a9a888289016127b5565b93505060608601359150612ab060808701612a26565b90509295509295909350565b60008060408385031215612acf57600080fd5b50508035926020909101359150565b60005b83811015612af9578181015183820152602001612ae1565b50506000910152565b60008151808452612b1a816020860160208601612ade565b601f01601f19169290920160200192915050565b85815260a060208201526000612b4760a0830187612b02565b8281036040840152612b598187612b02565b60608401959095525050608001529392505050565b60006101208b8352806020840152612b888184018c612b02565b90508960408401528281036060840152612ba2818a612b02565b6080840198909852505060a081019490945291151560c0840152151560e0830152151561010090910152949350505050565b600080600060608486031215612be957600080fd5b8335925060208401359150612c0060408501612a26565b90509250925092565b60008060408385031215612c1c57600080fd5b8235915060208301356001600160401b03811115612c3957600080fd5b612c45858286016127b5565b9150509250929050565b600060208284031215612c6157600080fd5b61071382612974565b8035801515811461298b57600080fd5b600080600080600060a08688031215612c9257600080fd5b8535945060208601356001600160401b03811115612caf57600080fd5b612cbb888289016127b5565b94505060408601359250612cd160608701612c6a565b9150612ab060808701612974565b600080600060608486031215612cf457600080fd5b8335925060208401356001600160401b03811115612d1157600080fd5b612d1d868287016127b5565b925050612c0060408501612c6a565b8d81526101a060208201526000612d476101a083018f612b02565b8281036040840152612d59818f612b02565b90508281036060840152612d6d818e612b02565b90508b60808401528a60a08401528960c084015282810360e0840152612d93818a612b02565b9050828103610100840152612da88189612b02565b9050828103610120840152612dbd8188612b02565b915050612dcf61014083018615159052565b921515610160820152901515610180909101529b9a5050505050505050505050565b6000808335601e19843603018112612e0857600080fd5b8301803591506001600160401b03821115612e2257600080fd5b602001915036819003821315612e3757600080fd5b9250929050565b600181811c90821680612e5257607f821691505b6020821081036126db57634e487b7160e01b600052602260045260246000fd5b601f8211156119df57600081815260208120601f850160051c81016020861015612e995750805b601f850160051c820191505b81811015611ee857828155600101612ea5565b6001600160401b03831115612ecf57612ecf6126e1565b612ee383612edd8354612e3e565b83612e72565b6000601f841160018114612f175760008515612eff5750838201355b600019600387901b1c1916600186901b178355610c60565b600083815260209020601f19861690835b82811015612f485786850135825560209485019460019092019101612f28565b5086821015612f655760001960f88860031b161c19848701351681555b505060018560011b0183555050505050565b634e487b7160e01b600052603260045260246000fd5b81516001600160401b03811115612fa657612fa66126e1565b612fba81612fb48454612e3e565b84612e72565b602080601f831160018114612fef5760008415612fd75750858301515b600019600386901b1c1916600185901b178555611ee8565b600085815260208120601f198616915b8281101561301e57888601518255948401946001909101908401612fff565b508582101561303c5787850151600019600388901b60f8161c191681555b5050505050600190811b01905550565b634e487b7160e01b600052601160045260246000fd5b6000600182016130745761307461304c565b5060010190565b81835281816020850137506000828201602090810191909152601f909101601f19169091010190565b60a0815260006130b860a08301898b61307b565b82810360208401526130cb81888a61307b565b604084019690965250506060810192909252608090910152949350505050565b808201808211156110a8576110a861304c565b6020808252818101527f4f776e61626c653a2063616c6c6572206973206e6f7420746865206f776e6572604082015260600190565b600080835461314181612e3e565b60018281168015613159576001811461316e5761319d565b60ff198416875282151583028701945061319d565b8760005260208060002060005b858110156131945781548a82015290840190820161317b565b50505082870194505b50929695505050505050565b6020808252601390820152721059dc99595b595b9d0818d85b98d95b1b1959606a1b604082015260600190565b634e487b7160e01b600052602160045260246000fd5b600082516131fe818460208701612ade565b9190910192915050565b60408152600061321b6040830185612b02565b90506003831061323b57634e487b7160e01b600052602160045260246000fd5b8260208301529392505050565b805169ffffffffffffffffffff8116811461298b57600080fd5b600080600080600060a0868803121561327a57600080fd5b61328386613248565b9450602086015193506040860151925060608601519150612ab060808701613248565b634e487b7160e01b600052601260045260246000fd5b6000826132cb576132cb6132a6565b600160ff1b8214600019841416156132e5576132e561304c565b500590565b80820281158282048414176110a8576110a861304c565b600082613310576133106132a6565b500490565b634e487b7160e01b600052600160045260246000fd5b818103818111156110a8576110a861304c56fea2646970667358221220a9b93b0d41c0070df018222a9c65ba716c3478b4c0dc70a2f86f1ec055f6bb2e64736f6c63430008110033",
  "immutableReferences": {},
  "source": "// SPDX-License-Identifier: UNLICENSED\r\npragma solidity ^0.8.9;\r\n\r\n// pragma experimental ABIEncoderV2;\r\n\r\ninterface IERC20 {\r\n    /**\r\n     * @dev Returns the amount of tokens in existence.\r\n     */\r\n    function totalSupply() external view returns (uint256);\r\n\r\n    /**To set up a new project, go to the projects directory that you created in Chapter 1 and make a new project using Cargo, like so:                                        \r\n     * @dev Returns the amount of tokens owned by `account`.\r\n     */\r\n    function balanceOf(address account) external view returns (uint256);\r\n\r\n    /**\r\n     * @dev Moves `amount` tokens from the caller's account to `recipient`.\r\n     *\r\n     * Returns a boolean value indicating whether the operation succeeded.\r\n     *\r\n     * Emits a {Transfer} event.\r\n     */\r\n    function transfer(address recipient, uint256 amount)\r\n        external\r\n        returns (bool);\r\n\r\n    /**\r\n     * @dev Returns the remaining number of tokens that `spender` will be\r\n     * allowed to spend on behalf of `owner` through {transferFrom}. This is\r\n     * zero by default.\r\n     *\r\n     * This value changes when {approve} or {transferFrom} are called.\r\n     */\r\n    function allowance(address owner, address spender)\r\n        external\r\n        view\r\n        returns (uint256);\r\n\r\n    /**\r\n     * @dev Sets `amount` as the allowance of `spender` over the caller's tokens.\r\n     *\r\n     * Returns a boolean value indicating whether the operation succeeded.\r\n     *\r\n     * IMPORTANT: Beware that changing an allowance with this method brings the risk\r\n     * that someone may use both the old and the new allowance by unfortunate\r\n     * transaction ordering. One possible solution to mitigate this race\r\n     * condition is to first reduce the spender's allowance to 0 and set the\r\n     * desired value afterwards:\r\n     * https://github.com/ethereum/EIPs/issues/20#issuecomment-263524729\r\n     *\r\n     * Emits an {Approval} event.\r\n     */\r\n    function approve(address spender, uint256 amount) external returns (bool);\r\n\r\n    /**\r\n     * @dev Moves `amount` tokens from `sender` to `recipient` using the\r\n     * allowance mechanism. `amount` is then deducted from the caller's\r\n     * allowance.\r\n     *\r\n     * Returns a boolean value indicating whether the operation succeeded.\r\n     *\r\n     * Emits a {Transfer} event.\r\n     */\r\n    function transferFrom(\r\n        address sender,\r\n        address recipient,\r\n        uint256 amount\r\n    ) external returns (bool);\r\n\r\n    /**\r\n     * @dev Emitted when `value` tokens are moved from one account (`from`) to\r\n     * another (`to`).\r\n     *\r\n     * Note that `value` may be zero.\r\n     */\r\n    event Transfer(address indexed from, address indexed to, uint256 value);\r\n\r\n    /**\r\n     * @dev Emitted when the allowance of a `spender` for an `owner` is set by\r\n     * a call to {approve}. `value` is the new allowance.\r\n     */\r\n    event Approval(\r\n        address indexed owner,\r\n        address indexed spender,\r\n        uint256 value\r\n    );\r\n}\r\n\r\n/**\r\n * @title SafeMath\r\n * @dev Math operations with safety checks that throw on error\r\n */\r\nlibrary SafeMath {\r\n    function mul(uint256 a, uint256 b) internal pure returns (uint256) {\r\n        if (a == 0) {\r\n            return 0;\r\n        }\r\n        uint256 c = a * b;\r\n        assert(c / a == b);\r\n        return c;\r\n    }\r\n    function div(uint256 a, uint256 b) internal pure returns (uint256) {\r\n        // assert(b > 0); // Solidity automatically throws when dividing by 0\r\n        uint256 c = a / b;\r\n        // assert(a == b * c + a % b); // There is no case in which this doesn't hold\r\n        return c;\r\n    }\r\n\r\n    function sub(uint256 a, uint256 b) internal pure returns (uint256) {\r\n        assert(b <= a);\r\n        return a - b;\r\n    }\r\n\r\n    function add(uint256 a, uint256 b) internal pure returns (uint256) {\r\n        uint256 c = a + b;\r\n        assert(c >= a);\r\n        return c;\r\n    }\r\n}\r\n\r\n// File: zeppelin-solidity/contracts/ownership/Ownable.sol\r\n\r\n/**\r\n * @title Ownable\r\n * @dev The Ownable contract has an owner address, and provides basic authorization control\r\n * functions, this simplifies the implementation of \"user permissions\".\r\n */\r\ncontract Ownable {\r\n    address public owner;\r\n\r\n    event OwnershipTransferred(\r\n        address indexed previousOwner,\r\n        address indexed newOwner\r\n    );\r\n\r\n    /**\r\n     * @dev The Ownable constructor sets the original `owner` of the contract to the sender\r\n     * account.\r\n     */\r\n    constructor() {\r\n        owner = msg.sender;\r\n    }\r\n \r\n    /**\r\n     * @dev Throws if called by any account other than the owner.\r\n     */\r\n    modifier onlyOwner() {\r\n        require(msg.sender == owner,\"Ownable: caller is not the owner\");\r\n        _;\r\n    }\r\n\r\n    /**\r\n     * @dev Allows the current owner to transfer control of the contract to a newOwner.\r\n     * @param newOwner The address to transfer ownership to.\r\n     */\r\n    function transferOwnership(address newOwner) public onlyOwner {\r\n        require(newOwner != address(0));\r\n        emit OwnershipTransferred(owner, newOwner);\r\n        owner = newOwner;\r\n    }\r\n    \r\n}\r\n\r\ninterface AggregatorV3Interface {\r\n  function decimals() external view returns (uint8);\r\n\r\n  function description() external view returns (string memory);\r\n\r\n  function version() external view returns (uint256);\r\n\r\n  // getRoundData and latestRoundData should both raise \"No data present\"\r\n  // if they do not have data to report, instead of returning unset values\r\n  // which could be misinterpreted as actual reported values.\r\n  function getRoundData(uint80 _roundId)\r\n    external\r\n    view\r\n    returns (\r\n      uint80 roundId,\r\n      int256 answer,\r\n      uint256 startedAt,\r\n      uint256 updatedAt,\r\n      uint80 answeredInRound\r\n    );\r\n\r\n  function latestRoundData()\r\n    external\r\n    view\r\n    returns (\r\n      uint80 roundId,\r\n      int256 answer,\r\n      uint256 startedAt,\r\n      uint256 updatedAt,\r\n      uint80 answeredInRound\r\n    );\r\n}\r\n\r\ncontract AgreementContract is Ownable {\r\n    \r\n    using SafeMath for uint256;\r\n    \r\n    AggregatorV3Interface internal priceFeed;\r\n    \r\n    uint256 public milestonefee = 500;               //5%\r\n    uint256 public maxMilestoneFee = 1000;           //10%\r\n    \r\n    // uint256 public escrowAmount;\r\n    uint256 public agrementId = 100;\r\n    uint256 public AdminCommissionFee;\r\n    \r\n    constructor() {\r\n        priceFeed = AggregatorV3Interface(0x143db3CEEfbdfe5631aDD3E50f7614B6ba708BA7);  // Aggregator: ETH/USD\r\n    }\r\n\r\n    function getLatestPrice() public view returns (uint256) {\r\n        (\r\n            , // uint80 roundID\r\n            int price, \r\n            , // uint startedAt\r\n            , // uint timeStamp\r\n              // uint80 answeredInRound\r\n        ) = priceFeed.latestRoundData();\r\n        return uint256(price / 10**8);\r\n    }\r\n\r\n    struct Agreement {\r\n        uint256 id;\r\n        string contractName;\r\n        string details;\r\n        string privacy;\r\n        uint256 start_time;\r\n        uint256 end_time;\r\n        uint256 price;\r\n        string validatersID;\r\n        string employeeID;\r\n        string employerID;\r\n        uint256[] milstones;\r\n        bool approved;\r\n        bool validated;\r\n        bool delivered;\r\n    }\r\n\r\n    struct milestone {\r\n        uint256 id;\r\n        string taskName;\r\n        uint256 Mile_Price;\r\n        string Priority;\r\n        uint256 due_Date;\r\n        uint256 submission_time;\r\n        bool delivered;\r\n        bool validated;\r\n        bool Approve;\r\n    }\r\n\r\n    struct employer {\r\n        uint256 id;\r\n        string name;\r\n        string email;\r\n        uint256 phoneNo;\r\n        uint256 allocationToken;\r\n    }\r\n\r\n    struct employee {\r\n        uint256 id;\r\n        string name;\r\n        string email;\r\n        uint256 phoneNo;\r\n        uint256 allocationToken;\r\n    }\r\n\r\n    struct validator {\r\n        uint256 id;\r\n        string name;\r\n        string email;\r\n        uint256 phoneNo;\r\n        uint256 allocationToken;\r\n    }\r\n\r\n    enum Role {\r\n        employee,       // company\r\n        employer,       // client\r\n        validator\r\n    }\r\n    mapping(uint256 => mapping(uint256 => uint256))public escrowAmount;\r\n\r\n    mapping(uint256 => mapping(uint256 => milestone))public milestoneDetails;\r\n    mapping(uint256 => employer) public employerDetails;\r\n    mapping(uint256 => employee) public employeeDetails;\r\n    mapping(uint256 => validator) public validatorDetails;\r\n    mapping(uint256 => Agreement) public agreementDetails;\r\n    mapping(uint256 => mapping(uint256 => bool)) public fundTransfered;\r\n    mapping(uint256 => bool)public contractCancelled;\r\n    mapping(uint256 => mapping(uint256 => mapping(Role => bool))) public claimed;\r\n    mapping(uint256 => mapping(uint256 => bool)) public scrowAmountDeposited;\r\n\r\n    event registration(\r\n        uint256 indexed id,\r\n        string indexed name,\r\n        string email,\r\n        uint256 indexed phoneNo,\r\n        Role role\r\n    );\r\n\r\n    event ContractCreation(\r\n        uint256 indexed id,\r\n        string details,\r\n        string employeeId,\r\n        uint256 start_time,\r\n        uint256 end_time,\r\n        uint256 price\r\n\r\n    );\r\n\r\n    //** this function for Registration of different participants according //\r\n    // ** to have Role like Validators,employee,employer //\r\n    function Registration(\r\n        uint256 id,\r\n        string memory name,\r\n        string memory email,\r\n        uint256 phoneNo,\r\n        Role role\r\n    ) public onlyOwner {\r\n        require(\r\n            employerDetails[id].id != id &&\r\n                employeeDetails[id].id != id &&\r\n                validatorDetails[id].id != id,\r\n            \"this id is already exist in participants\"\r\n        );\r\n        if (role == Role.employee) {\r\n            employee storage emp = employeeDetails[id];\r\n            emp.id = id;\r\n            emp.name = name;\r\n            emp.email = email;\r\n            emp.phoneNo = phoneNo;\r\n            emit registration(id, name, email, phoneNo, role);\r\n        } else if (role == Role.employer) {\r\n            employer storage emplyr = employerDetails[id];\r\n            emplyr.id = id;\r\n            emplyr.name = name;\r\n            emplyr.email = email;\r\n            emplyr.phoneNo = phoneNo;\r\n            emit registration(id, name, email, phoneNo, role);\r\n        } else if (role == Role.validator) {\r\n            validator storage validtr = validatorDetails[id];\r\n            validtr.id = id;\r\n            validtr.name = name;\r\n            validtr.email = email;\r\n            validtr.phoneNo = phoneNo;\r\n            emit registration(id, name, email, phoneNo, role);\r\n        }\r\n    }                                                                                                                                                                                                                                                                                                                                                                                                                                                                                                                                                                                                                                                                                                                                                                                                                                                                                                                                                                                                                                                                                                                                                                                                                                                                                                                                                                                                                                                                                                                                                                                                                                                                                                                                                                                                                                                                                                                                                                                                                                                                                                                                                                                                                                                                                                                                                                                                                                                                                                                                                                                                                                                                                                                                                                                                                                                                                                                                                                                                                                                                                                                                                                                                                                                                                                                                                                                                                                                                                                                                                                                                                                                                                                                                                                                                                                                                                                                                                                                                                                                                                                                                                                                                                                                                                                                                                                                                                                                                                                                                                                                                                                                                                                                                                                                                                                                                                                                                                                               \r\n\r\n    //** this function is used to create agreement between employeee and employer **//\r\n\r\n    function CreateContract(\r\n        Agreement calldata _agrement,\r\n        uint256[] memory Mile_Price,\r\n        string[] memory _taskName,\r\n        string[] memory priority,\r\n        uint256[] memory due_date\r\n        \r\n    ) public{\r\n\r\n        uint256 totalMile_Price;\r\n        Agreement storage agreemnt = agreementDetails[agrementId];\r\n        agreemnt.id=agrementId;\r\n        agreemnt.contractName = _agrement.contractName;\r\n        agreemnt.privacy=_agrement.privacy;\r\n        agreemnt.details = _agrement.details;\r\n        agreemnt.employeeID = _agrement.employeeID;\r\n        agreemnt.start_time = _agrement.start_time;\r\n        agreemnt.end_time = _agrement.end_time;\r\n        agreemnt.price = _agrement.price;\r\n\r\n        for (uint256 i = 0; i < Mile_Price.length; i++) {\r\n            agreementDetails[agrementId].milstones.push(i);\r\n            milestoneDetails[agrementId][i].id = i;\r\n            milestoneDetails[agrementId][i].Mile_Price = Mile_Price[i];\r\n            milestoneDetails[agrementId][i].taskName = _taskName[i];\r\n            milestoneDetails[agrementId][i].Priority =priority[i];\r\n            milestoneDetails[agrementId][i].due_Date = due_date[i];\r\n            totalMile_Price = totalMile_Price.add(Mile_Price[i]);\r\n        }\r\n        require(\r\n           totalMile_Price <= _agrement.price,\r\n            \"milestone price is greater than contract price\"\r\n        );\r\n        emit ContractCreation(\r\n            agrementId,\r\n            _agrement.details,           \r\n            _agrement.employeeID,\r\n            _agrement.start_time,\r\n            _agrement.end_time,\r\n            _agrement.price\r\n        );\r\n        agrementId+= 1;   \r\n    }\r\n    function shareOption(uint256 agreementID,string memory _employerID)public{\r\n        Agreement storage agrement = agreementDetails[agreementID];\r\n        agrement.employerID=_employerID;\r\n\r\n    }\r\n    function Approve(\r\n        uint256 _agreementID,\r\n        string memory _employerID,\r\n        bool status\r\n    ) public {\r\n        require(keccak256(bytes(agreementDetails[_agreementID].employerID)) == keccak256(bytes(_employerID)), \"Only Employer\");\r\n        require(agreementDetails[_agreementID].approved != true, \"Agreement already approved\");\r\n        agreementDetails[_agreementID].approved = status;\r\n    }\r\n\r\n    function depositFunds(uint256 _agreementID,uint256 _milesID) public payable {\r\n        require(contractCancelled[_agreementID] != true,\"Agreement cancelled\");\r\n        require(agreementDetails[_agreementID].approved, \"Agreement not approved\");\r\n        require( scrowAmountDeposited[_agreementID][_milesID] !=true,\"ScrowAmount already deposited\");\r\n        require(milestoneDetails[_agreementID][_milesID].Approve != true, \"Milestone already delivered\");\r\n        require(msg.value == getMilestoneETHAmount(_agreementID,_milesID), \"Incorrect amount\");\r\n        escrowAmount[_agreementID][_milesID] = escrowAmount[_agreementID][_milesID].add(msg.value);\r\n        scrowAmountDeposited[_agreementID][_milesID]=true;\r\n    }\r\n\r\n    function deliverMilestone(\r\n        uint256 _agreementID,\r\n        uint256 _milesID,\r\n        string memory _employeeID,\r\n        uint256 _submissionTime    \r\n    ) public {  \r\n        require(keccak256(bytes(agreementDetails[_agreementID].employeeID)) == keccak256(bytes(_employeeID)), \"Only Employee\");\r\n        require(contractCancelled[_agreementID] != true, \"Agreement cancelled\");\r\n        require(milestoneDetails[_agreementID][_milesID].Approve != true, \"Milestone already accepted\");\r\n\r\n        for (uint256 i = 0; i < agreementDetails[_agreementID].milstones.length; i++) {\r\n            if (_milesID == agreementDetails[_agreementID].milstones[i]) {\r\n                milestoneDetails[_agreementID][_milesID].delivered = true;\r\n                milestoneDetails[_agreementID][_milesID].submission_time = _submissionTime;\r\n            }\r\n        }\r\n    }\r\n\r\n    function approveMilestone(\r\n        uint256 _agreementID,\r\n        string memory _employerID,\r\n        uint256 _milesID,\r\n        bool status,\r\n        address receiver\r\n    ) public {\r\n\r\n        require(keccak256(bytes(agreementDetails[_agreementID].employerID)) == keccak256(bytes(_employerID)), \"Only Employer\");\r\n        require(contractCancelled[_agreementID] != true, \"Agreement cancelled\");\r\n        require(milestoneDetails[_agreementID][_milesID].Approve != true, \"Milestone already approved\");\r\n        require(milestoneDetails[_agreementID][_milesID].delivered == true, \"Milestone not delivered\");\r\n        require(fundTransfered[_agreementID][_milesID] != true, \"Milestone already released\");\r\n\r\n        for (uint256 i = 0; i < agreementDetails[_agreementID].milstones.length; i++) {\r\n            if (_milesID == agreementDetails[_agreementID].milstones[i]) {\r\n                milestoneDetails[_agreementID][_milesID].Approve = status;\r\n                \r\n                if(status == true) {\r\n                    uint amount = milestoneDetails[_agreementID][i].Mile_Price.mul(1e18).div(getLatestPrice());\r\n                    uint fee = amount.mul(milestonefee).div(10000);\r\n                    payable(owner).transfer(fee);\r\n                    payable(receiver).transfer(amount.sub(fee));\r\n                    AdminCommissionFee = AdminCommissionFee.add(fee);\r\n                    escrowAmount[_agreementID][_milesID] = escrowAmount[_agreementID][_milesID].sub(amount);\r\n                    fundTransfered[_agreementID][_milesID] = true;\r\n                }\r\n            }\r\n        }\r\n    }\r\n\r\n    function getMilestoneETHAmount(uint256 agreementID, uint256 _mileID) public view returns(uint256){   \r\n        milestone storage mile = milestoneDetails[agreementID][_mileID];\r\n        uint256 milestonePrice = mile.Mile_Price.mul(1e18).div(getLatestPrice());\r\n        return milestonePrice;\r\n    }\r\n\r\n\r\n    function convertUSDtoETH(uint256 amount) public view returns(uint256){\r\n        uint256 _amount = amount.mul(1e18).div(getLatestPrice());\r\n        return _amount;\r\n    }\r\n\r\n    //Validate-milestone:- Used to validated milestone(with respect to milestone id) by validator(validator id).\r\n    function ValidateMilestone(\r\n        // string memory validaterid,\r\n        uint256 agreementID,\r\n        uint256 milestoneID\r\n    ) public {\r\n        milestone storage mile = milestoneDetails[agreementID][milestoneID];\r\n        require(contractCancelled[agreementID] !=true,\"Agreement cancelled\");\r\n        require(milestoneDetails[agreementID][milestoneID].delivered == true, \"it must be delivered\");\r\n        require(milestoneDetails[agreementID][milestoneID].Approve != true,\"Milestone already accepted\");\r\n        mile.validated = true;\r\n\r\n    } \r\n\r\n    // End contract id:-\r\n    // Used to end contract-id with this parameter{time stamp,employer id , contract id].\r\n    function endOfContract(uint256 agreementID,string memory employerId) public {\r\n        Agreement storage agrement = agreementDetails[agreementID];\r\n        require(keccak256(bytes(agrement.employerID)) == keccak256(bytes(employerId)),\"Only employer have authority to end the contract\");\r\n        agreementDetails[agreementID].delivered = true;\r\n        agreementDetails[agreementID].end_time = block.timestamp;\r\n    }\r\n\r\n    function cancelcontract(uint256 agreementID) public onlyOwner {\r\n        contractCancelled[agreementID] = true;\r\n    }\r\n\r\n    function raiseDispute(uint256 agreementID, uint256 milesid, Role role) public {\r\n        require(fundTransfered[agreementID][milesid] != true,\"Fund already transfered\");         \r\n        if (role == Role.employee) {\r\n            require(milestoneDetails[agreementID][milesid].delivered == true, \"Milestone is not delivered\");\r\n            require(milestoneDetails[agreementID][milesid].Approve != true, \"Check your Approval status\");\r\n            claimed[agreementID][milesid][role] = true;\r\n\r\n        } else if (role == Role.employer) {\r\n            require(milestoneDetails[agreementID][milesid].Approve != true, \"Check your Approval status\");\r\n            require(escrowAmount[agreementID][milesid] >= milestoneDetails[agreementID][milesid].Mile_Price, \"Funds not escrowed\");\r\n            claimed[agreementID][milesid][role] = true;\r\n\r\n        } else {\r\n            revert(\"Invalid Role\");      \r\n        } \r\n    }\r\n\r\n    function disputeResolve(uint256 agreementID, uint256 milesID,uint256 amount, address receiver) public onlyOwner{\r\n        require(amount<=address(this).balance,\"Insufficient amount\");\r\n       \r\n        for (uint256 i = 0; i < agreementDetails[agreementID].milstones.length; i++) {\r\n            if (milesID == agreementDetails[agreementID].milstones[i]) {\r\n                uint _amount = amount.mul(1e18).div(getLatestPrice());\r\n                uint fee = _amount.mul(milestonefee).div(10000);\r\n                payable(owner).transfer(fee);\r\n                payable(receiver).transfer(_amount.sub(fee));\r\n                AdminCommissionFee = AdminCommissionFee.add(fee);\r\n                escrowAmount[agreementID][milesID] = escrowAmount[agreementID][milesID].sub(amount);\r\n                fundTransfered[agreementID][milesID] = true;   \r\n            }\r\n        }         \r\n    }\r\n\r\n    function setMilestoneFee(uint fee) public onlyOwner {\r\n        require(fee <= maxMilestoneFee,\"Fee is greater than Maxmilestone Fee\");\r\n        milestonefee=fee;\r\n    }\r\n\r\n    function updatePriceFeed(address _priceFeed) public onlyOwner {\r\n        priceFeed = AggregatorV3Interface(_priceFeed);  // Aggregator: ETH/USD\r\n    }\r\n\r\n    function withdraw() public onlyOwner {\r\n        payable(owner).transfer(address(this).balance);  \r\n    } \r\n    \r\n                                                            \r\n}",
  "sourcePath": "D:\\escrow\\contracts\\Escrow.sol",
  "compiler": {
    "name": "solc",
    "version": "0.8.17+commit.8df45f5f.Emscripten.clang"
  },
  "schemaVersion": "3.4.11",
  "updatedAt": "2022-12-22T13:09:39.953Z",
  "networkType": "ethereum",
  "devdoc": {
    "kind": "dev",
    "methods": {
      "transferOwnership(address)": {
        "details": "Allows the current owner to transfer control of the contract to a newOwner.",
        "params": {
          "newOwner": "The address to transfer ownership to."
        }
      }
    },
    "version": 1
  },
  "userdoc": {
    "kind": "user",
    "methods": {},
    "version": 1
  }
}